:020000040800F2
:1000000000300020CD160008CB160008C9160008E5
:10001000C9160008C9160008C9160008000000002B
:10002000000000000000000000000000CB160008E7
:10003000CB16000800000000CB160008650E000873
:10004000C9160008C9160008C9160008C916000814
:10005000C9160008C91600087B0E00087F0E0008AC
:10006000C9160008C9160008C9160008C9160008F4
:10007000C9160008C9160008690E00086D0E0008B0
:10008000710E0008730E0008C9160008C916000892
:10009000C9160008C9160008C9160008C9160008C4
:1000A000C9160008C9160008C9160008C9160008B4
:1000B000770E0008C9160008C9160008C9160008FE
:1000C000C9160008C9160008C9160008C916000894
:1000D000C9160008C9160008C9160008C916000884
:1000E000C9160008C9160008C9160008C916000874
:1000F000C9160008C9160008C9160008C916000864
:10010000C9160008C9160008C9160008C916000853
:10011000C9160008C9160008C9160008C916000843
:10012000C9160008C9160008C9160008C916000833
:10013000C9160008C9160008C9160008C916000823
:10014000C9160008C9160008C9160008C916000813
:10015000C9160008C9160008C9160008C916000803
:10016000C9160008C9160008C9160008C9160008F3
:10017000C9160008C9160008C9160008C9160008E3
:10018000C916000810B50C24B1FBF4F2427004FB50
:10019000121282700322B1FBF2F282710A4A525C9F
:1001A000C2700A4A525C0271094A525C4271094AA1
:1001B000525C183AC271084A525C183A0272074AF5
:1001C000525C183A427210BD18340008F43300082B
:1001D000D0330008AC3300088833000864330008CB
:1001E00038B50346044607C9002503F8045B83E8D5
:1001F00007008422294604F1100002F06DFA20461F
:1002000038BD30B503788B4285B004460D460DD01D
:10021000FD238DF80C3001238DF80D10009303AAF7
:1002200002233021043000F005FE257005B030BDFA
:100230007FB516461D460446FFF7E3FF01230093F2
:1002400003AA02233021201D8DF80C608DF80D507B
:1002500000F0F0FD00F0D2FB0028FBD104B070BD2F
:1002600008B5C02100230922FFF7E2FFBDE80840DE
:100270000520002100F024BB002914BF0323022322
:100280000922C021FFF7D4BF01F007030622C021D5
:10029000FFF7CEBF0B460522C021FFF7C9BF4901BA
:1002A00041F00B0303F0EB030422C021FFF7C0BFB2
:1002B0002DE9F04703460C468CB000F110010025F3
:1002C000943001F8015B8142FBD1092A64D8DFE850
:1002D00012F00A000A000A0066008300830083000F
:1002E000DE00F400160102EB42022421920002F12A
:1002F0000C00B2FBF1F801FB182818320024B2FB05
:10030000F1F6B0FBF1F701FB162201FB17075FFACC
:1003100088F8FFB2D6B24FF0FF0A254658FA84F1AA
:10032000C9B203A8FFF72EFF9DF813201A445FFA05
:1003300084F982F810A09DF814201A4407EB0901F3
:1003400015749DF815201A44C9B2157406A8FFF754
:1003500019FF9DF81F201A4406EB090115749DF83A
:1003600020201A44C9B282F810A09DF821201A4416
:1003700009A81574FFF706FF9DF82B201A440134D5
:1003800015749DF82C201A440C2C15749DF82D2002
:100390001A4482F810A0C1D10CB0BDE8F087002447
:1003A000744D2646E1B209A8FFF7ECFE9DF82B201C
:1003B000A1101A44695C11749DF82C201A44C4F1F0
:1003C000230116749DF82D2089101A440134695CAC
:1003D0001174242CE6D1DFE702EB420224219200C3
:1003E00002F10C00B2FBF1F801FB182818320024CE
:1003F000B2FBF1F6B0FBF1F701FB162201FB170788
:100400005FFA88F8FFB2D6B24FF0FF0A254658FAD5
:1004100084F1C9B203A8FFF7B5FE9DF813201A4472
:100420005FFA84F982F810A09DF814201A4407EBB3
:10043000090115749DF815201A44C9B2157406A84F
:10044000FFF7A0FE9DF81F201A44802111749DF82B
:1004500020201A44602111749DF821201A4406EBD3
:1004600009011574C9B209A8FFF78CFE9DF82B206D
:100470001A44402115749DF82C201A44013411743B
:100480009DF82D201A440C2C1574C0D184E700244B
:10049000FF25E1B209A8FFF775FE9DF82B201A444D
:1004A000013415749DF82C201A44242C15749DF8E1
:1004B0002D201A441574ECD16EE70622B4FBF2F13C
:1004C000013141F3000741F3400641F38001FFB2DF
:1004D000F6B2CCB20025E9B209A8FFF753FE9DF8A9
:1004E0002B201A44013517749DF82C201A44242D12
:1004F00016749DF82D201A441474ECD14CE71E4A52
:100500001068516803AD03C516469068286056F818
:100510000C0F716806AD03C5B068286052F8180F5B
:10052000516809AD03C5906828602426002562192A
:10053000B2FBF6F106FB1121C9B26846FFF722FEB5
:100540009DF802200CA90A449DF8071012F8187CA7
:1005500012F80C0C12F8242C194401350A749DF879
:1005600008201A44242D17749DF809201A44107489
:10057000DDD111E75C330008383300082DE9F04184
:1005800040318AB0C9B216460446FFF73AFE00234E
:1005900003A98DF80C300F461A460233182B4A7007
:1005A00001F8022FF9D104344FF00108CDF8008092
:1005B00019233A463021204600F03CFC002505F185
:1005C00018038DF80C3072190023013312F8011B47
:1005D000F9540B2BF9D1CDF800800C233A46302189
:1005E00020460B3500F026FC842DE8D10AB0BDE88A
:1005F000F08110B50446FFF75BFE04F110022046BF
:100600000021BDE81040FFF7B9BF000013B501316C
:10061000C9B20446FFF7F5FD01230093034A1923ED
:100620003021201D00F006FC02B010BD00000020AB
:1006300001F03F0141F040030022C021FFF7F8BD67
:1006400010B500210446FFF717FE2046FFF708FE0D
:1006500020460121FFF718FE20461521FFF71AFE5C
:10066000002211462046FFF7C4FF20460021FFF775
:10067000CDFF20460021FFF712FE20460121FFF7A3
:10068000FBFD20460021BDE81040FFF7D1BF7047B9
:1006900008B500F009F80028FBD000F071FB6420D9
:1006A000002100F00DF9F4E7014B1878704700BF06
:1006B0001900002008B5104800F02CFF4FF42070FE
:1006C00000F086FF40F2912000F082FF40F292207D
:1006D00000F07EFF40F2953000F07AFF4FF440705A
:1006E00000F076FF4FF4607000F072FFBDE8084044
:1006F00040F2913000F06CBF6034000808B5064845
:1007000010230121002200F0D9FCBDE80840024876
:10071000102100F0CBBC00BF00040048124A13486F
:1007200008B5136823F0F00343F0A0031360012120
:1007300000F0A7FB0D48022100F0A3FB0B480321AA
:1007400000F09FFB0948042100F09BFB07480521AE
:1007500000F097FB0548062100F093FBBDE8084038
:100760000248072100F08DBB50000140000002400C
:1007700008B5042000F0FEFF084B00221A60084B69
:1007800018684FF47A73B0FBF3F0013800F0EAFF19
:1007900000F0FCFFBDE8084001F000B818E000E000
:1007A0001C00002008B50022042302214FF09040D5
:1007B00000F084FC042207214FF0904000F0B9FCC7
:1007C00011484FF4E13100F03BFF0F48082100F0E1
:1007D0004BFF0D48002100F056FF0B48002100F0B0
:1007E0004CFF0948082100F054FF0021064800F0A2
:1007F00056FF054800F059FF044B1B68002198681C
:10080000BDE8084001F0E6BF004400402800002099
:1008100008B54FF09041012000F0FEFB4FF09041F1
:10082000022000F0F9FB0320002100F0C9FBBDE825
:100830000840032000F0E0BB08B501214FF08040E4
:1008400000F0F6FE4FF4A0614FF0804000F0ECFEA7
:1008500041F288314FF0804000F0E8FE4FF08040D8
:10086000012100F0D5FEBDE808404FF0804000F0C7
:10087000D6BE08B510210F2000F0A6FF0F2000F013
:1008800095FF00210E2000F09FFF0E2000F08EFF4C
:1008900020211C2000F098FF1C2000F087FF302151
:1008A000062000F091FF062000F080FF0720402185
:1008B00000F08AFFBDE80840072000F077BF000085
:1008C000064BF0B5D3E90045061941EB0507D3E91E
:1008D0000001B94208BFB042F9D3F0BD9001002039
:1008E000012210B511463C483B4CC02300F0E6FB0A
:1008F000C02303223848012100F000FC3648C02103
:1009000000F0D4FB01200021FFF7DAFF32488021FC
:1009100000F0CEFB01200021FFF7D2FF2E4840213E
:1009200000F0C6FB01200021FFF7CAFF2A48402142
:1009300000F0BCFB01200021FFF7C2FF2648802108
:1009400000F0B4FB01200021FFF7BAFF224880230A
:100950000122002100F0B2FB1F48802100F0ABFB18
:1009600080B92046402100F0A3FB01200021FFF7C1
:10097000A7FF2046402100F099FB01200021FFF74E
:100980009FFFE9E7154800F01CFC144800F0FCFB51
:10099000124800F005FEC0230F480022022100F09B
:1009A0008DFBC02204210C4800F0C3FB0B4800F073
:1009B00012FC0A48002100F013FC0822012107481C
:1009C00000F0CAFC054800F034FC044800F0F4FBD9
:1009D000034B00221A7010BD000400480054004070
:1009E000E2000020044930B5D1E90023541C43F152
:1009F0000005C1E9004530BD90010020024B187888
:100A0000003818BF01207047E200002008B50A4BEB
:100A10000A48012204211A7000F033FA0521074820
:100A200000F02FFA064800F0CCFBFFF759FF054B0A
:100A300000221A7008BD00BFE20000200000024042
:100A400000540040EC000020F8B51546314A0F462E
:100A500011781E4601F0FF042F4B49B119784A1C4A
:100A6000D2B214291A7001D9FFF7D0FF01244CE04B
:100A70001C70002D49D0012301462848137000F056
:100A8000DDFB264800F0E7FB2448294600F0E8FBA0
:100A90002348052100F0F5F9224A2148052100F0FC
:100AA00077FA1F483A46052100F07BFAAAB21C48A3
:100AB000052100F07FFA1A48052100F033FA1848A2
:100AC000052100F026FA16482246052100F014FA06
:100AD00013482246052100F002FA4FF44052104814
:100AE000052100F0EFF90E48052100F02DFA0C4821
:100AF000052100F03BFA094800F068FB074836B1D1
:100B000000F0B5FB054800F0CCFB2046F8BD00F036
:100B1000B3FBF7E7E2000020EC00002000540040A7
:100B2000000002402454004008B54021034800F072
:100B300081FD80F00100C0B208BD00BF004400404C
:100B400038B505460C462048402100F073FD0028CA
:100B500037D01E48072100F094F91D4A1B48072191
:100B600000F016FA19482A46072100F01AFA224620
:100B70001648072100F01EFA1448072100F0DBF99F
:100B80001248072100F0C5F910480022072100F0A3
:100B9000B3F90E480022072100F0A1F94FF480526A
:100BA0000A48072100F08EF90848072100F0CCF927
:100BB0000648072100F0DAF9034800F07BFD002029
:100BC00038BD0120FCE700BF0044004000000240A7
:100BD0002844004008B513480222042100F068F9B7
:100BE000F8B102220F48042100F05CF90D480421FD
:100BF00000F0B3F90C4800F05EFB0C4B00221A70B9
:100C00000B4B1A683AB10B4A0B49107809681A68FD
:100C10000123FFF719FFBDE808400248042100F056
:100C2000AEB908BD0000024000540040E2000020C0
:100C3000E8000020E3000020E400002008B5104890
:100C40000222052100F034F9C0B102220C4805212E
:100C500000F028F905210A4800F07FF9094800F062
:100C600025FB094A064800231370084A1360084A06
:100C700005211360BDE8084000F081B908BD00BF40
:100C80000000024000540040E2000020E400002088
:100C9000E800002008B50C480222072100F008F9FE
:100CA00088B102220848072100F0FCF80721064815
:100CB00000F053F9054800F002FDBDE80840024885
:100CC000072100F05CB908BD00000240004400406C
:100CD00008B501214FF0804000F09EFC014B01223D
:100CE0001A7008BD1900002005490B780A205A1C0B
:100CF000B2FBF0F300FB1323DBB20B70704700BFB5
:100D0000E000002005490B780A2003F10902B2FB3C
:100D1000F0F300FB1323DBB20B707047E000002000
:100D200008B5012000F072F9BDE80840FFF7EABFFE
:100D300008B5022000F06AF9BDE80840FFF7D4BF0B
:100D400008B5FFF7B7FCFFF7D9FCFFF7E7FCFFF7A3
:100D50000FFDFFF727FDFFF75BFDFFF78AFDFFF7AC
:100D6000BFFDFFF769FD0448FFF76AFCBDE80840D6
:100D7000024801F027BD00BFFC0000203C34000801
:100D8000084B00221A70084A117824204B1CB3FB30
:100D9000F0F100FB1131054B0548C9B211701A780A
:100DA000FFF727BC19000020E1000020E000002030
:100DB000FC0000200138012870B515460FD8104BF3
:100DC000881800240D26814211D00A780A2A04BF0F
:100DD0001E55013411F8012B1A550134F3E701F0C7
:100DE00067FC052303604FF0FF35284670BDFFF711
:100DF0009BFE0028FBD1E1B20148FFF7A1FEF4E71A
:100E00009000002010B5054C0549204600F00CF874
:100E100021460448BDE81040FFF7E2B9F000002089
:100E200000540040FC00002000220160426002816A
:100E30008272704737B5044643B101200025A07285
:100E4000CDE90055206800F03BFAA572002003B000
:100E500030BD08B5FFF774FFFFF719FCFFF718FC6A
:100E6000002008BDFFF7BEBDFFF7B4BEFFF7E6BE2A
:100E70007047FFF70FBFFFF72BBFFFF751BFFFF71B
:100E800057BF0139142303FB010300229A60DA6083
:100E90001A615A61426889000F2303FA01F1114374
:100EA000416070470139890002FA01F141607047E1
:100EB00001390368890002FA01F1194214BF0120C7
:100EC00000207047142301395943083010B50C58DD
:100ED00024F440540C500B581A430A5010BD1423EC
:100EE00001395943083010B50C5824F440640C50B3
:100EF0000B581A430A5010BD1423013959430830C6
:100F000010B50C5824F440740C500B581A430A5076
:100F100010BD14230139594308300B5843F08003A6
:100F20000B50704714230139594308300B5823F0F4
:100F300010030B50704714230139594308300B58E4
:100F400043F010030B507047142301395943083004
:100F50000B5843F002030B507047142301395943D7
:100F600008300B5823F002030B507047142301394B
:100F7000594308300B5843F001030B5070471423BA
:100F80000139594308300B5823F001030B507047C7
:100F90001423013903FB01008368DB0758BF02619A
:100FA00070471423013903FB01008368DB0758BF36
:100FB000426170470139142359430C300A5070477D
:100FC00001290BD0022911D039B90A4A1368034309
:100FD0001360536823EA000050607047054A1368A5
:100FE00023EA0003136053681843F5E7014A1368C6
:100FF0000343F7E708040140034A136803431360FF
:10100000536818435060704700040140014B18605A
:10101000704700BF140401402DE9F04F1E4E1F4FD2
:10102000DFF88090DFF880A0864600224FF00108AC
:101030004FF00F0C08FA02F313EA0E0F16D0B1426C
:1010400023D018D8494522D051450CBF0223002394
:1010500007EB9204A40002F003052068AD000CFA2F
:1010600005FB20EA0B00AB40184320600132102A38
:10107000E0D1BDE8F08F0A4B99420AD003F58063B6
:1010800099420CBF05230023E2E70323E0E7012395
:10109000DEE70423DCE700BF000C0048024000103C
:1010A00000100048000400480008004881617047B3
:1010B0000904816170470069084070472DE9F041DB
:1010C0000568C46800264FF0030E43FA06F7FF07D1
:1010D0000DD577000EFA07FC01FA07F825EA0C0592
:1010E00024EA0C0402FA07F748EA05053C430136F6
:1010F000102EEAD10560C460BDE8F0810129416885
:101100000CBF19439943F0B5416081680024032660
:1011100043FA04F5ED0707D5650006FA05F721EA5D
:10112000070102FA05F529430134102CF0D1816042
:10113000F0BDF0B5076A466A00234FF00F0C42FA83
:1011400003F4E50707D59D000CFA05F427EA040728
:1011500001FA05F52F430133082BF0D14FF00F0CA6
:1011600042FA03F4E40708D59C00203C0CFA04F58D
:1011700026EA050601FA04F426430133102BEFD1C9
:1011800007624662F0BD00000A4B98420BD003F59F
:10119000005398420AD0A3F51053984209D140F267
:1011A000152000F023BA40F21620FAE740F21E2084
:1011B000F7E7704700580040036843F001030360FD
:1011C0007047036823F0010303607047436843F4EA
:1011D000005343607047036823F4805303607047F3
:1011E000036823F4706343EA0121016070470369D7
:1011F00023F0704343EA017101617047036923F4EE
:10120000700343EA015101617047036923F47023BD
:1012100043EA014101617047036923F47F4343EAD4
:10122000012101617047036923F0FF031943016144
:101230007047436823F40063436070474368490084
:10124000C9B223F0FE03194341607047436823F499
:10125000806343607047436843F480634360704732
:10126000436823F47F0343EA0141416070474368C8
:1012700043F0007343607047436823F0007343609A
:1012800070478069C0F3001070478069C0F3400068
:1012900070478069C0F3801070478069C0F3800098
:1012A0007047036843F4004303607047036823F406
:1012B000004303607047036823F480430360704772
:1012C000F8B5079D04460F461E46002B41D0FFF798
:1012D000B5FFFFF7BBFF3146FFF7C2FF3DB3FFF796
:1012E000CBFF2046FFF772FF1644B24222D195B3DE
:1012F0002046FFF7CEFF0028FAD020463946FFF7F8
:101300009DFFFFF7A8FF2946FFF7AAFFFFF75EFF43
:10131000FFF7ADFF069B1D449D421CD02046FFF702
:10132000BCFF0028FAD0626A03F8012BF4E7FFF74C
:101330009EFFD6E72046FFF7A8FF03462046FFF7AB
:10134000A0FF0028FAD1002BF4D012F8013BA362D1
:10135000CBE7002DD1D1F8BD012910B5044611D03D
:10136000022923D09208511EC9B2FFF740FF132172
:10137000FFF759FF0F21FFF74FFF0221FFF745FF4E
:1013800004210EE0D208511EC9B2FFF730FF092137
:10139000FFF749FF0321FFF73FFF0321FFF735FF69
:1013A00003212046BDE81040FFF728BF10BD000014
:1013B000034A1368C3F38103022BFAD1704700BFBD
:1013C00004100240042817D8DFE800F003080D12CB
:1013D00014000A4B1868C0F340607047074B186848
:1013E000C0F340407047054B1868C0F34000704799
:1013F000034BF9E7034BF7E700207047001002406A
:10140000201002402410024008B502461046FFF7A3
:10141000D9FF0028FAD008BD08B502461046FFF7EC
:10142000D1FF0028FAD108BD012806D1094A136866
:10143000C3F38103012BFAD17047022805D1054A75
:10144000136813F00C0FFBD170470028FCD1FFF795
:10145000AFBF00BF04100240042809D8DFE800F045
:1014600003090E1315000A4A136843F080731360D2
:101470007047074A136843F48033F8E7044A136857
:1014800043F00103F3E7034AF9E7034AF7E700BF34
:10149000001002402010024024100240034A13684A
:1014A00023F0030318431060704700BF041002408C
:1014B000034A136823F4803343EA00401060704706
:1014C00004100240034A136823F4605343EAC02027
:1014D0001060704704100240034A136823F4E0636D
:1014E00043EA00201060704704100240034A13686A
:1014F00023F0F00343EA001010607047041002402C
:10150000034A136823F4701343EA80401060704765
:101510000410024010B504460220FFF79DFF022090
:10152000FFF772FF0020FFF7B9FF0220FFF77CFFF3
:1015300017490B6823F080730B600020FFF76CFFE6
:101540002078FFF7B5FF6078FFF7DAFF0B6843F00C
:1015500080730B600020FFF757FF207AFFF7C6FF6C
:10156000A07AFFF7AFFF607AFFF7B6FF606800F080
:101570003BF90220FFF792FFFFF71AFF054BE268E5
:101580001A60054B22691A60044B62691A6010BD2B
:10159000001002401C000020200000202400002039
:1015A000084B984205D1084A136823F010031360D2
:1015B0007047064B9842FBD1034A136823F020037F
:1015C000F5E700BF005400403010024000580040D2
:1015D000430903F1804303F5043300F01F00196849
:1015E000012202FA00F0084318607047430903F132
:1015F000804303F504330122196800F01F0002FA4A
:1016000000F0014319601A6822EA00001860704770
:10161000C3681943C1607047C943016170470368DB
:1016200043F001030360704781627047C1627047F5
:1016300041627047C3690B4214BF0120002070470C
:10164000064A074B90421B6804BF064B1B6803EB1E
:101650005103B3FBF1F1C160704700BF0038014096
:101660002000002024000020036808290CBF23F478
:10167000805343F4805303607047436823F440531E
:10168000194341607047036823F4C0631943016044
:101690007047036823F00C031943016070478368A7
:1016A00023F44073194381607047036843F00103DA
:1016B00003607047836843F08003836070478368EA
:1016C00023F0800383607047FEE7704738B51A4AFD
:1016D0001A4B1B498B421BD31A4A002193421CD33D
:1016E000194A1A4C13681A4D43F400731360536F70
:1016F00043F470035367AC4212D3164C164DAC4200
:1017000012D3FFF7A6FB154C154DAC4210D338BDD4
:1017100052F8040B43F8040BDCE743F8041BDDE745
:1017200054F8043B9847E6E754F8043B9847E6E74B
:1017300054F8043B9847E8E7E83700080000002029
:101740008C000020B401002014ED00E0DC3400081F
:10175000DC340008DC340008E0340008E034000821
:10176000E0340008024B20F07F401860704700BF53
:1017700014E000E0044A136800F0040023F00403BE
:1017800003431360704700BF10E000E0024A136893
:1017900043F002031360704710E000E0024A136850
:1017A00043F001031360704710E000E0054B42096D
:1017B00003EB820300F01F00012202FA00F0186020
:1017C000704700BF00E100E0502893BF00F1604087
:1017D000044B00F00F0000F564408CBFC154017051
:1017E000704700BF14ED00E0034A136823F00F03B5
:1017F00018431060704700BF0020024003685A0081
:101800004CBF43F0004323F000431844704700BF2F
:101810002DE9F84329B34F1E044615463E464FF0C6
:10182000000808EB060101EBD171491004EBC10976
:101830004846FFF7E3FF0346C80008308F422044C4
:1018400009D0AB4209D8FFF7D9FF0138A8420AD224
:1018500001F10108E5E7AB4205D9884501D04E1EEC
:10186000DFE74FF000094846BDE8F883012807D0BC
:10187000022807D0044B00280CBF184600207047F0
:101880000248704702487047311F0008351F0008A2
:10189000391F000830B5234B83B004468D1E3BB37F
:1018A00001A92846AFF30080E8B101992A46FFF765
:1018B000AFFF0146B8B1FFF7A1FF4B68A064012B51
:1018C0002BD0002B01F1040023DBFFF797FF00234F
:1018D000C4E913030368002B10DBFFF78FFF2061BF
:1018E000002003B030BD00230920236103B030BDC8
:1018F0000D490E48091AC9100191D7E7C3F30360D7
:10190000FFF7B4FF0028206114BF0020092003B0B6
:1019100030BD0123C4E91303DCE700232361052064
:10192000DFE700BF00000000E8370008E8350008E6
:101930000368DA0710B5044606D49B0700F1480097
:1019400009D500F04BFC2368590709D51A070ED5B5
:10195000DB0613D510BD00F039FC23685907F5D418
:1019600004F1D00000F042FC23681A07F0D404F51B
:10197000A87000F043FC2368DB06EBD404F5E870A4
:10198000BDE8104000F07EBC0346006800B118447A
:10199000704700BF09207047704700BF70B504460C
:1019A0000E46316C2046FFF775FF054688B9336C4B
:1019B0006361324623692146012098470828F0D008
:1019C000072806D12846316CFFF7E6FF301D00F0EE
:1019D000F1FB00F065FE00BF2DE9F0470D1D064646
:1019E00014460FCDADF5727D0DF10C0CACE80F0077
:1019F0000FCDACE80F000FCDACE80F0095E80F005D
:101A000002ADF768D6F818808CE80F0000232B6031
:101A100021E02B6C73614FF4F07229467AA800F034
:101A20004DFE33697AAA314650469847889BCDE9E6
:101A3000005821466B648146334632460120B84740
:101A40000446E8B94FF4F0727AA9284600F036FE51
:101A5000B9F1080F1BD1296C3046FFF71BFF093481
:101A60005FFA84FA81460028D3D0AB6B4AF01001AC
:101A7000CDE9005832466B6401203346B84708B1BF
:101A80004FF0090948460DF5727DBDE8F087B9F1C0
:101A9000070FF5D12046296CFFF77EFF03A800F061
:101AA00089FB00BF406C7047F0B5CB6B0B640E1D1B
:101AB0000F4605460FCEF9B001AC0FC40FCE0FC4D0
:101AC0000FCE0FC496E80F004FF0FF3684E80F00EA
:101AD000009606E02B696A4629469847082804467E
:101AE00008D110992846FFF7D5FE0028F2D009202A
:101AF00079B0F0BD6846FFF71BFF062CF7D13946D9
:101B00002846FFF74BFF00BF30B4DD6BC160826138
:101B100019461D64002230BC5EE700BF70B5C66880
:101B200043690B64AEB903690A4604460D46014693
:101B300002209847072805D008280FD129462046BB
:101B4000FFF72CFF3046296CFFF726FF281D00F019
:101B500031FB0122FFF740FF00F0A2FD00F0A0FDE5
:101B6000C2681AB1CA6B0A64002235E79CE700BF5D
:101B7000704700BF836801460BB1012018477047CA
:101B8000012912D009D873B90F2A0CD800EB8202B0
:101B900018465368009A136070470339012994BFAF
:101BA000012002207047022070470846704700BF9E
:101BB00010B584B0002303AC0A4600941946FFF721
:101BC000DFFF039804B010BD012912D009D873B902
:101BD0000F2A0CD800EB8200009A12684260184667
:101BE00070470339012994BF012002207047022069
:101BF00070470846704700BF10B584B0002303AC9F
:101C0000039200940A461946FFF7DEFF04B010BDA8
:101C1000F0B5D36B1364151D8C4606460FCDADF59C
:101C20000F7D17AC0FC40FCD0FC40FCD0FC495E8B7
:101C30000F004FF0FF3784E80F006546169710E05D
:101C4000FFF7DAFF294616A8B047034616AA6946E9
:101C5000082083B9049B9847052804460CD009281E
:101C600009D026996846FFF715FE03466A460C21FF
:101C700016A8002BE4D0092416A8FFF759FE204629
:101C80000DF50F7DF0BD00BF2DE9F04FCC6C89B094
:101C90000D4654F8041B0694174600F003081E4630
:101CA000002B79D00B0CDAB209048DF81D30022319
:101CB00004EB820405918DF81C302B6DB8F1020FF6
:101CC00008BFAC6B13F001030CD0384605A900F037
:101CD00073FB18B9082009B0BDE8F08F092009B0DE
:101CE000BDE8F08FD4F800A0BAF1000FEDD0019359
:101CF00000F008030293022E4AD0B4F800A0B4F812
:101D000002900434AA6C29F0010B0F213846934449
:101D1000FFF74EFF834539D82AF001025A44824228
:101D200094BF002001204FEA490303F002030AF0A8
:101D3000010A43EA0A03012B49D0022B32D0002BBF
:101D4000CCD1B8F1000F02D0002840F0CD8004348F
:101D5000D4F800A0BAF1000FCDD105A9384600F0A3
:101D60002BFB0028BAD1019B002BB3D00F213846A2
:101D7000FFF71EFF0E2102463846FFF73DFF3846AB
:101D80006A4A0F21FFF738FF0720A8E70020CAE7BB
:101D9000D4F804900834B5E7090203230591ADF89F
:101DA0001C308AE7236823F0004BB8F1000F45D1BF
:101DB00028B1029A002A5CD0BBF1000F74D0002B2E
:101DC00000DA04340BF1010B04EB8B04C0E7B8F12B
:101DD000000F19D1B0B1D4E90023991C4FEAD27297
:101DE0003FF47CAF05F158010133049100F090807D
:101DF000201DFFF7C9FD04AB01462846AFF3008064
:101E000000285BD10834A3E70D213846D5F820908F
:101E1000FFF7CEFE8145F5D1AB6A9C42F2D1204658
:101E2000FFF7ECFC0F2102463846FFF7E5FE384687
:101E30002A460021FFF7E0FE072050E70D21384633
:101E4000D5F82090FFF7B4FE814501D02368B6E7AE
:101E5000AB6A9C42FAD104220021C5E90B12A318F7
:101E6000C5F828B06B6323688B4259DB01230193CB
:101E7000A8E705F15803CDF80C8004F1040AB04638
:101E800091461E460DE00496FFF77EFD04AB014629
:101E900000222846AFF3008009F101090AF1040A83
:101EA000E8B9D9455046EED138460D21FFF780FEFE
:101EB000049B2862C5E90934062010E781460D21FC
:101EC0003846FFF775FEB9F1020F286225D12B467F
:101ED000049A43F82C2F6B62AC620620FFE646465C
:101EE0002368DDF80C806AE72046FFF787FC04349E
:101EF0000246AC6328461446AFF3008000283FF446
:101F0000EDAE384622460F21FFF776FE0720E6E6C3
:101F100038460D21FFF74CFE2862049B6B62DBE71D
:101F20000BF1010004EB80007AE700BF0000000025
:101F30000023A9E60123A7E60223A5E62DE9F04345
:101F40000646C3B015461C46042900F2B980DFE8F6
:101F500001F09A53B7290300002C40F0B180102AF9
:101F600000F2AE800368D80600F1F38020AF384657
:101F700000F092F9B06B0023012404FA03F22A4224
:101F8000014604D051F8042B47F8232008460133BA
:101F9000042BF2D1B063384600F074F9002043B04E
:101FA000BDE8F083032C40F08B8094B204EB124325
:101FB000102B4FEA124500F2838003681F0700F1DF
:101FC000D08020AF384600F03BF907EBC501B56B78
:101FD00054B10B46E81A01EBC401E4001A5843F867
:101FE000042B8B42FAD125443846B56300F006F93C
:101FF000002043B0BDE8F083012C4FEA124895B2AF
:102000005AD0052C5CD108EB0509B9F1200F57D83F
:10201000B8F10F0F77D9A946002D40F08880B36B37
:102020006DB320AF4FF0000907EBC807043F03EB87
:10203000C50553F8041B47F8041FAB42F9D1B9F1A9
:10204000000F0FD06F464146102938BF102107EB13
:10205000C101843903EBC90553F8040B41F8040F9F
:10206000AB42F9D1012C00F08480B8F10F0FB563B9
:1020700045D9B9F1000F02D0684600F0B7F800204A
:1020800043B0BDE8F083DCB9876B2346012094B2EE
:1020900006F1040C00FA03F22242394604D051F84A
:1020A000042B4CF823200F460133102BF2D115F4EA
:1020B0000050E4D1B76304E008EB0503102B03D90B
:1020C000022043B0BDE8F083B8F10F0FF8D83368B1
:1020D000DA0706D5304623F0030340F8483B00F00A
:1020E00079F820AF384600F075F8B36B002D99D120
:1020F0001D460435B563384600F068F8BFE720A8F0
:1021000000F06CF8B5E7B9F1100F40D9A9F110094A
:102110003368D90708D523F00103304643F00203A2
:1021200040F8483B00F05EF8B9F1000F32D0336858
:102130005A0720D4B8F10F0F25D96F463846C8F199
:10214000100500F057F8002DB36B7FF77CAF20AF80
:102150006AE723F01003336006F5E87000F09CF89E
:1021600004E723F00803036000F5A87000F068F8A6
:1021700027E720AFBDE7304623F0040340F8D03B0B
:1021800000F038F8D6E720A800F02CF8D5E74FF09B
:102190000009BDE7B8F10F0F3FF641AF20AF384659
:1021A00000F020F8B36B002D7FF43CAF384600F010
:1021B00015F864E700F1340191E838009C46A64622
:1021C0004CF8045D90E8FF0FE54600BD90EC210B54
:1021D000704700BF80EC210B704700BF90EC200BD4
:1021E000704700BF80EC200B704700BFD0EC200B85
:1021F000704700BFC0EC200B704700BFF0EC02013D
:10220000F0EC0211F0EC0221F0EC0231F0EC0241B2
:10221000F0EC0251F0EC0261F0EC0271F0EC0281A2
:10222000F0EC0291F0EC02A1F0EC02B1F0EC02C192
:10223000F0EC02D1F0EC02E1F0EC02F1704700BFEB
:10224000E0EC0201E0EC0211E0EC0221E0EC0231F2
:10225000E0EC0241E0EC0251E0EC0261E0EC0271E2
:10226000E0EC0281E0EC0291E0EC02A1E0EC02B1D2
:10227000E0EC02C1E0EC02D1E0EC02E1E0EC02F1C2
:10228000704700BFB0FC0181B0FC0191B0FC01A11E
:10229000B0FC01B1704700BFA0FC0181A0FC01911E
:1022A000A0FC01A1A0FC01B1704700BFEC4600B545
:1022B0002DE900502DE9FF1F4FF000032DE90C0020
:1022C00001A9FFF7F1FBDDF840E012B0704700BF55
:1022D000EC4600B52DE900502DE9FF1F4FF000033B
:1022E0002DE90C0001A9FFF719FCDDF840E012B060
:1022F000704700BFEC4600B52DE900502DE9FF1FE7
:102300004FF000032DE90C0001A9FFF729FCDDF8CF
:1023100040E012B0704700BFEC4600B52DE9005018
:102320002DE9FF1F4FF000032DE90C0001ABFFF773
:10233000EBFBDDF840E012B0704700BFEC4600B5A3
:102340002DE900502DE9FF1F4FF000032DE90C008F
:1023500001AAFFF75DFCDDF840E012B0704700BF56
:10236000027A7AB9437AA3B14268013B10B443724E
:1023700013680321141D01721A024460026010BC2C
:10238000180E70470368013A02721A020260180EB2
:102390007047B020704700BF00B585B003AA002386
:1023A000009219460C22FFF7EBFB039805B05DF88D
:1023B00004FB00BFF0E700BF2DE9F043054685B000
:1023C0000E464FF000083046FFF7CAFFB02804461B
:1023D00000F0B280070620D500F0F003802B4DD02E
:1023E000902B36D0A02B60D0B02B74D0C02B00F037
:1023F0008B8000F0F803D02B0BD100F007020132E4
:1024000042F40022052301212846FFF797FD00280A
:10241000D9D0092005B0BDE8F0830DF10C090023E7
:1024200019468700CDF800900D222846FFF7A8FB3B
:10243000FFB2039BCDF80090043760064CBFDF1B52
:10244000FF18002319460D2228460397FFF7BCFB0F
:10245000B9E700F00D030D2BDBD003AF002300F034
:102460000F02194600972846FFF78AFB00230097C2
:1024700019460D222846FFF7A7FBA4E73046FFF7D1
:102480006FFF24022043B0F5004FC2D004010023A7
:10249000A2B219462846FFF751FD0028B9D114F41D
:1024A000004F18BF4FF001088DE7C24302F0070349
:1024B0004FF47F621A41010702F47F624FF000037C
:1024C00048BF42F4804219462846FFF737FD0028EE
:1024D0003FF479AF9DE7B12833D0B22800F08B806C
:1024E000B32839D000F0FC03B42B92D000F00702DF
:1024F0000132012342F4002219462846FFF71EFD4F
:1025000000283FF460AF84E7C62842D0C7284CD0EB
:1025100000F0F803C02B5BD0C82860D0C9287FF436
:1025200078AF3046FFF71CFF020300F00F0002F403
:1025300070220130024365E7B8F1000F18D0002087
:1025400068E73046FFF70CFF024600283FF461AF12
:1025500010F0F003D0D05CE73046FFF701FF010335
:1025600000F00F0001F47021421C01230A43C3E76D
:1025700003AC43460E22414600942846FFF700FB79
:102580000094284643460F224146FFF71DFB404674
:1025900040E73046FFF7E4FE010300F00F0001F4CE
:1025A0007021421C03230A43A6E73046FFF7D8FEFA
:1025B000024600283FF42DAF10F0F0037FF429AF5E
:1025C00004212846FFF7BAFC00283FF4FCAE20E7C0
:1025D00000F00F020132032342F420228CE7304640
:1025E000FFF7BEFE00F0F00200F00F0310320133DF
:1025F00043EA023206E700230DF10C090D221946C9
:10260000CDF800902846FFF7BBFA3046FFF7A8FE4A
:1026100002064FF002070CD5039B00F07F00B84084
:10262000034430460393FFF79BFE030607F10707B9
:10263000F2D4039BCDF8009000F07F0403F5017203
:10264000BC400023144419460D2228460394FFF78A
:10265000BBFAB8E610B5C26C84B0536803248DF899
:102660000C401B0202F108040846D279019301A92B
:1026700002948DF80D20FFF79FFE04B010BD00BF3F
:1026800008B5FFF797FE806C08BD00BF08B5FFF7DF
:1026900091FEC06CC379023300EB830008BD00BF1C
:1026A00008B5062000F08CF9012000F043FE000080
:1026B000014B1868704700BF280000200A4491426F
:1026C00000F1FF3300D1704710B511F8014B03F84A
:1026D000014F9142F9D110BD02440346934200D10B
:1026E000704703F8011BF9E770B50E46054618B1AF
:1026F00083690BB900F05AFBAB69AC6813B9284683
:1027000000F054FB2C4B9C4220D16C68636EDB07BD
:1027100005D4A389980502D4A06D00F0E5FBA38938
:1027200019071DD52369DBB1013EA36816F8011F07
:10273000013BA36039BB002B38DA22460A21284628
:1027400000F05AF9013011D00A2511E01B4B9C42D0
:1027500001D1AC68DAE71A4B9C4208BFEC68D5E7B8
:102760002146284600F09AF90028DDD04FF0FF35C9
:10277000636EDA0705D4A3899B0502D4A06D00F02F
:10278000B4FB284670BD002B04DAA2699A4206DC2D
:102790000A2904D023685A1C22601970C5E7224612
:1027A000284600F029F90130BFD1DFE723680A2568
:1027B0005A1C22601D70DBE79C340008BC34000802
:1027C0007C340008024B01461868FFF78DBF00BF3C
:1027D0002800002000294FF480630CBF0222002251
:1027E00000F000B82DE9F7431D465D4B1F68044615
:1027F0000E46904627B1BB6913B9384600F0D6FAA9
:10280000584B9C4267D17C68B8F1020F06D0B8F1F2
:10281000010F00F29F80002DC0F29C80636EDB07E9
:1028200005D4A389980502D4A06D00F05DFB214674
:10283000384600F027FA616B41B104F14403994234
:1028400002D0384600F0BEFB002363630023A3617F
:102850006360A389190603D52169384600F0B2FBED
:10286000A38923F44A6323F00303B8F1020FA38181
:102870006CD001AB6A462146384600F037FBA3898D
:102880001843A081002D30D1009D284600F092FB16
:102890000646002855D1DDF80090A9454AD14FF0F1
:1028A000FF350022A26004F147022260226101226A
:1028B000B4F90C306261626E43F00203D207A38167
:1028C00005D413F4007F02D1A06D00F00EFB284662
:1028D00003B0BDE8F083244B9C4201D1BC6893E770
:1028E000224B9C4208BFFC688EE7002ECDD0BB690E
:1028F00013B9384600F05AFAB8F1010F08BFA3899E
:10290000266004BF43F00103A381A28912F00803EB
:10291000C4E904651CD0D30741BF00236D42A36006
:10292000A56158BFA560656E15F0010515D112F4BB
:10293000007FC8E7484600F03DFB06460028AED0C1
:102940004D46A38943F08003A381D0E70025A8E783
:10295000A360E8E74FF0FF35B9E70025B7E700BF10
:10296000280000209C340008BC3400087C34000897
:102970001F2938B504460D4604D9162303604FF0CD
:10298000FF3038BD426C12B152F821304BB92046AD
:1029900000F030F82A4601462046BDE8384000F0F5
:1029A00017B8012B0AD0591C03D11623036001204C
:1029B000E7E7002442F82540284698470020E0E752
:1029C000024B01461868FFF7D3BF00BF2800002064
:1029D00038B5074D00230446084611462B6000F029
:1029E00083FC431C02D12B6803B1236038BD00BFB8
:1029F000B001002000F068BCF8B50E46144605464C
:102A000018B183690BB900F0D1F9214B9C422BD14D
:102A10006C68A369A360A3891A072FD523696BB3D8
:102A200023692068C01A6369F6B28342374604DC22
:102A30002146284600F026F930BBA368013BA3607D
:102A400023685A1C22601E7063690130834204D0DF
:102A5000A389DB0706D50A2E04D12146284600F0BB
:102A600011F988B93846F8BD0A4B9C4201D1AC68CF
:102A7000CFE7094B9C4208BFEC68CAE721462846CD
:102A800000F00CF80028CBD04FF0FF37EAE700BF8A
:102A90009C340008BC3400087C340008324B70B50C
:102AA0001D6806460C4625B1AB6913B9284600F0EF
:102AB0007DF92E4B9C420FD16C68A389B4F90C2090
:102AC00019072CD4DD0611D40923336042F04003EA
:102AD000A3814FF0FF303EE0254B9C4201D1AC6812
:102AE000EBE7244B9C4208BFEC68E6E7580712D599
:102AF000616B41B104F14403994202D0304600F0C9
:102B000061FA00236363A38923F02403A3810023D4
:102B1000636023692360A38943F00803A3812369C9
:102B20004BB9A38903F42073B3F5007F03D021468A
:102B3000304600F0FFF9A089B4F90C2010F0010331
:102B40000AD00023A36063695B42A361236943B990
:102B500010F08000BAD170BD810758BF6369A360CF
:102B6000F4E70020F7E700BF280000209C340008AD
:102B7000BC3400087C3400088A892DE9F041054600
:102B800010070C4658D44B68002B05DC0B6C002B4F
:102B900002DC0020BDE8F081E66A002EF9D00023B7
:102BA00012F480522F682B6032D0606DA3895A07CF
:102BB00005D56368C01A636B0BB1236CC01A002380
:102BC0000246E66A216A2846B047431CA38906D11B
:102BD00029681D292CD82A4ACA40D60728D50022A0
:102BE0006260D9042269226004D5421C01D12B689D
:102BF00003B96065616B2F600029CAD004F14403FA
:102C0000994202D0284600F0DDF900206063C1E758
:102C1000216A01232846B047411CC7D12B68002BED
:102C2000C4D01D2B01D0162B01D12F60B1E7A38991
:102C300043F04003A381ADE70F69002FA9D09307AC
:102C40000E6808BF4B690F6018BF0023A6EB07088A
:102C50008B60B8F1000F9CDD216AA66A43463A46B4
:102C60002846B047002806DCA38943F04003A3812F
:102C70004FF0FF308EE70744A8EB0008E9E700BFFC
:102C80000100402038B50B6905460C4613B90025F4
:102C9000284638BD18B183690BB900F087F8144B8A
:102CA0009C421BD16C68B4F90C30002BEFD0626EE3
:102CB000D00704D4990502D4A06D00F015F9284678
:102CC0002146FFF759FF636EDA070546E0D4A38972
:102CD0009B05DDD4A06D00F008F9D9E7054B9C42B7
:102CE00001D1AC68DFE7044B9C4208BFEC68DAE72F
:102CF0009C340008BC3400087C340008002310B564
:102D00000446C0E90033C0E904338360818143662F
:102D1000C2818361194608225C30FFF7DDFC054B58
:102D20006362054BA362054BE362054B2462236398
:102D300010BD00BF393100085B3100089331000835
:102D4000B7310008014900F0AFB800BF852C00087A
:102D500070B54A1E682555430E4605F1740100F012
:102D600081F9044640B10021C0E900160C30A06092
:102D700005F16802FFF7B0FC204670BD014800F085
:102D8000B3B800BFAC010020014800F0AEB800BFEE
:102D9000AC010020014800F0A7B800BFA701002047
:102DA000014800F0A2B800BFA701002010B50446FA
:102DB000FFF7F0FFA3691BB1BDE81040FFF7F0BFBC
:102DC000C4E912332365134B134A1B68A262A34262
:102DD00004BF0123A361204600F020F86060204674
:102DE00000F01CF8A060204600F018F80022E06017
:102DF00004216068FFF782FFA06801220921FFF724
:102E00007DFFE06802221221FFF778FF0123A36112
:102E1000D2E700BF78340008452D0008F8B5074612
:102E2000FFF7ACFF1E4B1E68B36913B93046FFF7BE
:102E3000BDFF4836D6E90134013B03D533680BB3F7
:102E40003668F7E7B4F90C50D5B9164BE36004F1D6
:102E50005800656600F047F8FFF796FFC4E9015592
:102E6000C4E904552560A5610822294604F15C00E7
:102E7000FFF732FCC4E90D55C4E912552046F8BDF0
:102E80006834D9E704213846FFF762FF0446306012
:102E90000028D5D1FFF778FF0C233B60EEE700BF99
:102EA000783400080100FFFF2DE9F8430646884604
:102EB00000F148040027D4E90195B9F1010905D5CD
:102EC0002468002CF7D13846BDE8F883AB89012B84
:102ED00007D9B5F90E30013303D029463046C04733
:102EE00007436835E9E770477047704770B50E468D
:102EF000B1F90E10002996B014461D4607DA0023DA
:102F00002B60B3891A0610D44FF480630EE06A4632
:102F100000F078F90028F2DB019A02F47042A2F581
:102F200000535A425A412A60EEE7402300202360B2
:102F300016B070BD8B8973B59D0706460C4607D544
:102F400004F14703236023610123636102B070BD74
:102F500001AB6A46FFF7CAFF00990546304600F00C
:102F600081F848B9B4F90C309A05EFD423F0030383
:102F700043F00203A381E3E70D4BB362A389206012
:102F800043F08003A381009B6361019B20615BB1DF
:102F9000B4F90E10304600F047F928B1A38923F0A8
:102FA000030343F00103A381A0890543A581CDE775
:102FB000452D0008024B0146186800F053B800BFC9
:102FC0002800002037B5002948D051F8043C019072
:102FD000002BA1F10404B8BFE41800F047F9204A1F
:102FE00001981368154633B96360146003B0BDE8F7
:102FF000304000F041B9A3420BD9216862189342D6
:1030000004BF1A685B68636004BF521822602C60BA
:10301000ECE71A465B680BB1A342FAD91168551860
:10302000A5420BD1246821445418A3421160DDD17C
:103030001C685B68536021441160D7E702D90C23F8
:103040000360D3E7256861198B4204BF19685B6888
:10305000636004BF491921605460C7E703B030BD05
:1030600098010020F8B5CD1C25F0030508350C2D7E
:1030700038BF0C25002D064601DBA94203D90C23DD
:1030800033600020F8BD00F0F1F821490A681446C9
:103090009CB9204F3B6823B92146304600F03CF8EC
:1030A00038602946304600F037F8431C23D10C2302
:1030B0003360304600F0E0F8E3E723685B1B17D489
:1030C0000B2B03D923601C44256004E06368A242F3
:1030D0000CBF0B605360304600F0CEF804F10B00DB
:1030E000231D20F00700C21ACCD01B1AA350C9E739
:1030F00022466468CCE7C41C24F00304A042E3D059
:10310000211A304600F008F80130DDD1CFE700BFCA
:10311000980100209C01002038B5064D002304468C
:1031200008462B6000F0F8F8431C02D12B6803B16D
:10313000236038BDB001002010B50C46B1F90E1067
:1031400000F0A0F80028ABBF636DA3891B1823F41F
:103150008053ACBF6365A38110BD2DE9F0411F46CC
:103160008B89DB0505460C46164605D5B1F90E10D0
:103170000223002200F068F8A389B4F90E1023F4AA
:103180008053A38132463B462846BDE8F04100F01B
:1031900017B810B50C46B1F90E1000F055F8431CE5
:1031A000A38915BF606523F4805343F48053A38142
:1031B00018BFA38110BDB1F90E1000F013B80000C4
:1031C00038B5074D04460846114600222A601A46C3
:1031D000FDF7F0FD431C02D12B6803B1236038BD1D
:1031E000B001002038B5064D0023044608462B6088
:1031F00000F05AF8431C02D12B6803B1236038BD9C
:10320000B001002038B5074D00230446084611469A
:103210002B6000F051F8431C02D12B6803B12360EE
:1032200038BD00BFB001002038B5064D002304466C
:1032300008462B6000F050F8431C02D12B6803B104
:10324000236038BDB001002038B5074D044608465C
:10325000114600222A601A4600F04EF8431C02D1A3
:103260002B6803B1236038BDB00100200148FFF78F
:103270003BBE00BFA80100200148FFF736BE00BFDB
:10328000A801002038B5074D044608461146002223
:103290002A601A4600F038F8431C02D12B6803B1AB
:1032A000236038BDB0010020024B58221A604FF055
:1032B000FF307047B0010020024B58221A604FF0D7
:1032C000FF307047B0010020024B58221A604FF0C7
:1032D000FF307047B0010020024B58221A600020D6
:1032E000704700BFB0010020024B58221A604FF017
:1032F000FF307047B0010020024B58221A604FF097
:10330000FF307047B0010020024B58221A604FF086
:10331000FF307047B0010020044A05491368002BB4
:1033200008BF0B461844106018467047A0010020E3
:10333000B4010020FEE700BF80C040000000000094
:1033400000204020002040402020200000000000FD
:1033500000000000002040406080200200020408BD
:10336000102040804F70915071925172933073943D
:10337000317495327596335497345598355699363D
:10338000577837587938597A44658645668746674D
:103390008825688926698A276A8B28498C294A8D5D
:1033A0002A4B8E2B4C6D2C4D6E2D4E6F395A7B3A1D
:1033B0005B7C3B5C7D1A5D7E1B5E7F1C5F801D3EDF
:1033C000811E3F821F408320416221426322436469
:1033D00005080B05080B05080B02080B02080B0279
:1033E000080B02050B02050B02050B02050802057E
:1033F0000802050804070A04070A04070A01070A65
:1034000001070A01070A01040A01040A01040A016A
:10341000040701040701040703060903060903065C
:10342000090006090006090006090003090003094E
:1034300000030900030600030600030650656E72D0
:103440006F73652076330000000A00000100000061
:1034500000040000006CDC0200366E01006CDC022F
:10346000000E000002000000000400000090D003E5
:103470000048E8010090D0032C000020000000006C
:10348000000000000000000000000000000000003C
:10349000000000000000000000000000000000002C
:1034A000000000000000000000000000000000001C
:1034B000000000000000000000000000000000000C
:1034C00000000000000000000000000000000000FC
:0C34D000000000000000000000000000F0
:0434DC00050E0008D1
:1034E00008B10181B0B000840000000008B1018182
:1034F000B0B000840000000008B10181B0B00084C9
:103500000000000008B10181B0B00084000000009C
:1035100008B10181B0B000840000000008B1018151
:10352000B0B000840000000008B10181B0B0008498
:103530000000000008B10181B0B00084000000006C
:1035400008B10181B0B000840000000008B1018121
:10355000B0B000840000000008B10181B0B0008468
:103560000000000008B10181B0B00084000000003C
:1035700008B10181B0B000840000000008B10181F1
:10358000B0B000840000000008B10181B0B0008438
:103590000000000008B10181B0B00084000000000C
:1035A00008B10181B0B000840000000008B10181C1
:1035B000B0B000840000000008B10181B0B0008408
:1035C0000000000008B10181B0B0008400000000DC
:1035D00008B10181B0B000840000000008B1018191
:0835E000B0B0008400000000FF
:1035E8009CCBFF7F0100000012CCFF7FB0A90480B4
:1035F80038CCFF7FB0AA038060CCFF7FDCFEFF7F62
:1036080070CCFF7F010000006CCFFF7FB0AC098059
:10361800DACFFF7F01000000ECCFFF7FB0A8018068
:1036280008D0FF7F0100000010D0FF7FB0B0A88055
:1036380056D0FF7F0100000050D0FF7FA8FEFF7F1B
:1036480060D0FF7F0100000064D0FF7FA4FEFF7FF1
:10365800A4D0FF7FA8FEFF7FBCD0FF7FACFEFF7F1A
:1036680008D1FF7FB0FEFF7F34D1FF7FB4FEFF7F1C
:1036780098D1FF7FB8FEFF7FB8D1FF7FBCFEFF7FE8
:10368800EAD1FF7FC0FEFF7F30D2FF7F010000003C
:1036980048D2FF7FB0B0A88044D3FF7F010000006C
:1036A80064D3FF7FACFEFF7F98D3FF7FAB08B18068
:1036B80070D4FF7FA8FEFF7F80D4FF7FA908B18068
:1036C8000CD5FF7FA4FEFF7F6CD5FF7FA8FEFF7F90
:1036D800BCD5FF7FACFEFF7FF0D5FF7FB0FEFF7F3C
:1036E80000D6FF7F0100000030D6FF7FACFEFF7FD1
:1036F80038D6FF7FB0FEFF7F40D6FF7FB4FEFF7F46
:1037080078D6FF7F01000000A4D6FF7FB0B0AA8062
:10371800ECD6FF7F0100000014D7FF7FB0A902801C
:103728002AD7FF7F98FEFF7F34D7FF7F0100000074
:103738005CE1FF7FB0A90280F0E1FF7FB0B0A88014
:1037480040E2FF7F010000004CE2FF7FB0B0AA809A
:1037580080E2FF7FAE71B28044E3FF7F010000008A
:1037680040E3FF7FAB3F388098E3FF7F0100000014
:10377800A4E3FF7FB0B0AA80E0E3FF7F0100000070
:1037880088E4FF7FAB0EB280F8E4FF7FB0AF08801B
:1037980098E7FF7F010000009CE7FF7FAD3F0280B4
:1037A8000CEAFF7F01000000E8EBFF7F0084048043
:1037B800FCEBFF7F01000000F8EBFF7FB0AD048059
:1037C8008CEEFF7FB0A80380B0EEFF7FFCFDFF7F8B
:1037D800B4EEFF7F00FEFF7FC0EEFF7F0100000018
:1037E80000FC07FC07FC07E707E707E7073F073F79
:1037F800073F07FF01FF01FF0101000000127A00E7
:1038080000127A0000127A002C000020000000004C
:103818009C340008BC3400087C3400080000000018
:103828000000000000000000000000000000000090
:103838000000000000000000000000000000000080
:103848000000000000000000000000000000000070
:103858000000000000000000000000000000000060
:0C38680000000000000000000000000054
:04000005080016CD0C
:00000001FF
